:020000040800F2
:1000000058080020310200083F02000841020008A1
:1000100043020008450200084702000800000000F3
:10002000000000000000000000000000490200087D
:100030004B020008000000004D0200084F020008BB
:100040005102000851020008510200085102000844
:100050005102000851020008510200085102000834
:100060005102000851020008510200085102000824
:100070005102000851020008510200085102000814
:100080005102000851020008510200085102000804
:1000900051020008510200085102000851020008F4
:1000A00051020008510200085102000851020008E4
:1000B00051020008810A000851020008510200089C
:1000C00051020008510200085102000851020008C4
:1000D00051020008E10A000851020008510200081C
:1000E00051020008510200085102000851020008A4
:1000F000A90A000851020008510200085102000834
:100100005102000851020008510200085102000883
:100110005102000851020008510200085102000873
:10012000B9050008510200085102000851020008F8
:100130005102000851020008510200085102000853
:100140005102000851020008510200085102000843
:100150005102000851020008510200085102000833
:100160005102000851020008510200085102000823
:10017000510200085102000851020008000000006E
:10018000510200085102000800F002F800F041F8A6
:100190000AA090E8000C82448344AAF10107DA45E2
:1001A00001D100F036F8AFF2090EBAE80F0013F0F3
:1001B000010F18BFFB1A43F001031847B4350000C4
:1001C000D4350000103A24BF78C878C1FAD8520755
:1001D00024BF30C830C144BF04680C6070470000C1
:1001E0000023002400250026103A28BF78C1FBD840
:1001F000520728BF30C148BF0B607047642900F028
:100200007B80002070471FB503F007FA1FBD10B5B3
:1002100010BD00F04BF91146FFF7F5FF02F080F931
:1002200000F069F903B4FFF7F2FF03BC01F056FDDB
:100230000B48016841F4700101600A480047FEE77D
:10024000FEE7FEE7FEE7FEE7FEE7FEE7FEE7FEE786
:10025000FEE7000004480549034A054B70470000CB
:1002600088ED00E0890100085804002058080020AB
:1002700058040020704700000FB4044910B503AAC9
:10028000029800F0DDF810BC5DF814FB04000020BB
:100290002DE9F0410E460446002020622046E16828
:1002A000884730B3252805D0D4E901219047206A3A
:1002B000401CF2E7E168204600278847050018D077
:1002C000A5F14100192802D820354FF400673246C5
:1002D000294620462760FFF791FF40B1012804D04E
:1002E000F61D26F007060836D8E7361DD6E728465D
:1002F000DAE7206ABDE8F0812DE9F04106460024E6
:1003000010687529314616A510D0AFF3008000287B
:1003100002DA404213A507E031688A0701D512A529
:1003200002E0490704D511A5012401E0AFF30080E4
:1003300000210A2206F1240709E0B0FBF2FCB0FB21
:10034000F2F302FB1C00303078541846491C002898
:10035000F3D123462A463046BDE8F04100F017B8F5
:10036000000000002D0000002B0000002000000015
:10037000704770477047704710B500F073F8006819
:1003800010BD10B5044600F06DF8046010BD2DE9F5
:10039000F0470D4699469246044600F1240801684C
:1003A000880604D5E06921F01001216000E00120F9
:1003B000A84201DD471B00E00027A1697A1902EB82
:1003C0000900081AA0612078C00602D42046AFF3C5
:1003D0000080002608E0D4E901211AF806009047C1
:1003E000206A401C761C20624E45F4DB2078C00653
:1003F0000AD52046AFF3008006E0D4E90121302081
:100400009047206A401C2062381EA7F10107F4DCE7
:1004100007E0D4E9012118F805009047206A401C44
:100420002062281EA5F10105F3DC2046AFF3008011
:100430002078000602D50220BDE8F0870120FBE706
:10044000074B70B50D467B4400F015F8044628466E
:1004500000F024F810B14FF0FF3070BD204670BDA1
:10046000771F000000487047F803002001694A1C0C
:1004700002610878704700B58FB0CDE901310021E5
:10048000059105497944CDE9031011466846FFF707
:10049000FFFE0FB000BD0000E5FFFFFF007B00F096
:1004A0008000704700487047F80300207546FFF74A
:1004B000F9FFAE4605006946534620F00700854621
:1004C00018B020B5FFF7C6FEBDE820404FF000068B
:1004D0004FF000074FF000084FF0000B21F007012C
:1004E000AC46ACE8C009ACE8C009ACE8C009ACE86F
:1004F000C0098D46704710B50446AFF30080204612
:10050000BDE81040FFF78EBE2248006840F0200092
:10051000204908601F481030006840F480001D49E1
:10052000103108601C48006840F00A001A49086051
:10053000081D006840F00300091D0860081D0068E0
:1005400040F00F00091D0860081D006840F005001C
:10055000091D086010482030006840F044000E4932
:10056000203108600D48006820F001000B49086048
:100570002A20091D0860D22008491C3108602B2060
:10058000091D08600548006840F001000349086043
:10059000704700003038024000140240005800400C
:1005A0000020044988700871887108728872887305
:1005B00070470000D40000200A48006800F02000C6
:1005C00078B108480830006840F02000054908313B
:1005D000086000BF0448006880F4007002490860A9
:1005E00000BF704700640240141402403248407853
:1005F00001280FD1002030494870012008710846B9
:10060000C078401CC0B2C8700A2803DB0020C87044
:10061000012008712848007901280BD1264840792B
:10062000401CC0B2244948710A2803DB00204871ED
:10063000012088712048807901280BD11E48C0799B
:10064000401CC0B21C49C871052803DB0020C871DA
:10065000012008721848007A01280BD11648407A08
:10066000401CC0B214494872022803DB00204872C3
:10067000012088721048807A01280BD10E48C07A78
:10068000401CC0B20C49C8720A2803DB0020C872A3
:10069000012008730848007B01280BD10648407BE5
:1006A000401CC0B204494873062803DB002048738D
:1006B0000120887370470000D40000204148006882
:1006C00040F006003F4908603F48006820F0406065
:1006D0003D4908600846006840F000600860084630
:1006E000406A20F4700138484162406A40F4A00139
:1006F0003548416234480830006840F04060324973
:10070000083108603148006820F0C0002F490860B7
:100710000846006840F0800008602C4820300068DF
:1007200020F470402949203108600846006840F4F0
:10073000A040086025480830006840F0C000234908
:10074000083108602148006820F030001F49086027
:100750000846006840F0200008601C48203000680F
:1007600020F470601949203108600846006840F4A0
:10077000A060086015480830006840F03000134958
:10078000083108601048006820F040700E49086089
:100790000846006840F080700860081D006820F47A
:1007A0008050091D0860081D006840F04070091D58
:1007B000086005481430006840F480500249143144
:1007C00008607047303802400004024000080240D0
:1007D0001148006840F480400F49086000200F492C
:1007E00008600846006820F00300086008460068BA
:1007F00040F0040008600846006840F4407008605B
:100800000846006840F0100008600846006840F0A4
:100810004000086070470000403802400038004047
:100820002DE9F0412DED0E8BB0EE40BAF0EE60AA4E
:1008300004460D4616466BEE0B0A4AEEAA0AB0EEC7
:10084000600A00F025FDF0EE40BA9FED870AF0EE59
:1008500040CAF4EEECBAF1EE10FA0EDDCCEEAB0AC3
:10086000B0EE600A6BEE000AB0EE60BA6AEE800A83
:10087000F0EE60AAF0EE6CBA00BFF0EE4B0AB0EEFC
:100880006A0A00F099F9F0EE409AB0EE690AB5EE06
:10089000C00AF1EE10FA05D29FED740A39EE800A13
:1008A000F0EE409A9FED720AC9EE800ABCEEE00AB3
:1008B00010EE100AC7B200EE107AB8EE400ADFED73
:1008C0006C0AB0EE69DA00EE60DA9FED6A0A2BEE90
:1008D000800AF2EE080AC0EE20EADFED650A70EE4B
:1008E000CD0AB0EE600A00F00BFC6EEE808A9FED40
:1008F000610A2BEE800AF2EE080AC0EE20EAB0EEA2
:100900004D0A00F0FDFB2EEE809AB7EE000A30EEA5
:10091000680A70EE49DA9FED58AA9FED57CA9FED1D
:1009200056EAB0EE000A8DEE808A062F52D2DFE83A
:1009300007F003101D2A374438EE890A30EE080A02
:10094000B0EE40AA39EE080AB0EE40CAB0EE48EA6E
:1009500049E038EE880AB0EE40AA38EE890A30EE57
:10096000080AB0EE40CAB0EE48EA3CE0B0EE48AA51
:1009700038EE890A30EE080AB0EE40CA39EE080AAD
:10098000B0EE40EA2FE0B0EE48AA38EE880AB0EEAA
:1009900040CA38EE890A30EE080AB0EE40EA22E09A
:1009A00039EE080AB0EE40AAB0EE48CA38EE890A1D
:1009B00030EE080AB0EE40EA15E038EE890A30EE73
:1009C000080AB0EE40AAB0EE48CA38EE880AB0EE87
:1009D00040EA08E0B6EE000AB0EE40EAB0EE40CAE7
:1009E000B0EE40AA00BF00BF9FED240A2AEE000A25
:1009F000BCEEC00A10EE100A20809FED200A2CEEFB
:100A0000000ABCEEC00A10EE100A28809FED1B0AF7
:100A10002EEE000ABCEEC00A10EE100A30802088CC
:100A2000B0F57A7F02DD4FF47A7020802888B0F527
:100A30007A7F02DD4FF47A7028803088B0F57A7FB3
:100A400002DD4FF47A7030802088012101F026FB0E
:100A50002888022101F022FB3088032101F01EFBCF
:100A6000BDEC0E8BBDE8F081D8B3DD40DB0FC94093
:100A7000920A863FD7B3DD3F0000000000007A44B1
:100A80000748006800F0010048B10548006820F000
:100A900001000349086001200249487088707047CE
:100AA00010040040D400002010B50B48006800F08E
:100AB000010078B10848006820F00100064908608C
:100AC00000BF0648006880F400700449086000BF59
:100AD00001F00EFC10BD000010040140141402408F
:100AE0001C49096801F0200109B31A494968C8B2D4
:100AF0001949098801F40041C9B91749098801F465
:100B0000804161B10A2803D00021134A118020E0FE
:100B10001149098841F400410F4A118019E00D285C
:100B200006D10D49098841F480410B4A118010E03B
:100B300009490988C1F30D01084A5054064909883A
:100B4000491C054A118011460988C72901DD002189
:100B50001180704700100140080000200C000020A8
:100B600003B401984100009850EAC12018BF042046
:100B70004A0D18BF40F0010040F2FF72B2EB515F26
:100B800008BF40F00200012808BF052002B07047EE
:100B90004100080218BF04200A0E18BF40F00100EF
:100BA0004FF07F4232EA010108BF40F00200012805
:100BB00008BF05207047000070B54FF068422DED6A
:100BC000048BF0EE408A18EE900AB0EE608A18EEC0
:100BD000101A02EB4003B3F1654F3CBF02EB410238
:100BE000B2F1654F7DD200BFC0F3C753C1F3C75206
:100BF0009A1A1B2A09DD10F0004F14BF9FED830ADB
:100C00009FED830ABDEC048B70BD12F11A0F36DA2A
:100C100011F0004F09D010F0004F0CBF9FED7D0A7E
:100C20009FED7D0ABDEC048B70BD88EE889A19EEAD
:100C3000100AFFF7ADFF042808BF00F06BFF18EEA5
:100C4000900AFFF7A5FF054618EE100AFFF7A0FF70
:100C5000044619EE100AFFF79BFF042D18BF052D5F
:100C600008D1042C18BF052C04D1002804BF022091
:100C7000FFF787FBB0EE490ABDEC048B70BD420064
:100C8000B2EB410F3AD910F0004F19BFDFED630A04
:100C90009FED630ADFED630A9FED630AB0EE481A29
:100CA0000A46B1EE688A80F00041F0EE418A1046B3
:100CB0000A1A5200B2F1807F34D2484010F0004F3F
:100CC000DFED5A1A9FED5A2A1DBFBEEE001A70EED4
:100CD000E10A30EE420AB6EE001A08BF70EEA10A31
:100CE00000E040E008BF30EE020AB0EE682A01EEF4
:100CF000482A08EE818AC2EE081A15E011F0004F6A
:100D000004BF9FED4C0AF0EE400AD1D010F0004F26
:100D100019BFDFED490A9FED490ADFED490A9FED52
:100D2000490AC5E7C8EE881A21EEA11A9FED462AA6
:100D3000DFED462A41EE022A9FED452A01EE222AE6
:100D4000DFED442A41EE022A9FED432ABDEC048BDD
:100D500001EE222A21EE811A01EE020A30EE210A6A
:100D600030EE200A70BD4FF07F42B2EB400F28BF3B
:100D7000B2EB410F09D2F0EE480AB0EE680ABDECC2
:100D8000048BBDE8704000F0BABE40EA01035B008E
:100D900008BF41F0FF410BD0B2EB400F08BFB2EBF0
:100DA000410F08D120F0804008EE900A21F08041E8
:100DB00008EE101A18E7B2EB400F12BF5FEA4103CA
:100DC00040F0FF4001F000413FF40EAFB2EB410FA5
:100DD00012BF5FEA400200F0004041F0FF413FF4E3
:100DE00003AF4A0092EA40033FF5FEAE002AACBFD3
:100DF0009FED1A0A9FED1A0A68EE808A28EE008A93
:100E000018EE900A18EE101AEEE60000DB0FC9BFCC
:100E1000DB0FC93FDB0F4940DB0F49C00000C9BFF2
:100E200022AAFDB90000C93F22AAFD390060ED3EAB
:100E3000C30ACE3700000000000049C022AA7DBAD4
:100E40000000494022AA7D3A2DAD65BD8FB8D53D41
:100E50000FB511BE61C84C3EA8AAAABE0000804FC3
:100E60000000802F0000000010B52F499FED2C1BC3
:100E70002DED020B84B0059820F000408842D8BFC9
:100E80009DED040B2DDD2949884209D1049840B914
:100E90004FF00100FFF775FA00F00EFE06B010BD2E
:100EA00005DB9DED040B00F0FBFD06B010BD6846B0
:100EB0009DED040B00F00CFA10F0030004BF9DED53
:100EC000021B9DED000B0CD001280ED09DED021BE6
:100ED0009DED000B022817D0012000F049FD06B05F
:100EE00010BD00F011FC06B010BD9DED021B9DED84
:100EF000000B012000F03CFD51EC100B01F0E8FD6F
:100F000006B041EC100B10BD00F0FEFB51EC100BD5
:100F100001F0DEFD06B041EC100B10BD000000003A
:100F20000000000000000000FB21E93F0000F07F0E
:100F300010B52DED040B86B09DED060B10EE100ADA
:100F400010EE901A8DED000B002818BF0120084309
:100F500020F00040C0F17F6000F1E040C00F21D1DF
:100F60009DED080B10EE101A10EE900A8DED000B9F
:100F7000002918BF0121084320F00040C0F17F6024
:100F800000F1E040C00F0DD129490798B1EB400FA7
:100F900004BF0698002842D00998400004BF089872
:100FA00000283CD09DED080B53EC102B9DED060B5B
:100FB00051EC100B02F01CF9CDE902019DED020B82
:100FC00040F2FF7110EE900A8DED000B31EA1050E7
:100FD00021D00798039900F0004001F000418842B9
:100FE00019D09DED080B8DED040B9DED020B8DEDE1
:100FF000000B10EE900A059961F31E0005909DED1F
:10100000041B9DED020B51EC110B53EC102B02F065
:101010009DF9CDE902019DED020B0AB010BD012042
:10102000FFF7AFF90AB0BDE8104000F045BD000081
:101030000000E0FF0000000010B52F499FED2C1BC1
:101040002DED020B84B0059820F000408842DCBFF3
:1010500000209DED040B32DD2849884209D1049817
:1010600040B94FF00100FFF78CF900F025FD06B004
:1010700010BD05DB9DED040B00F012FD06B010BDA8
:1010800068469DED040B00F023F910F0030011D029
:10109000012818D09DED021B9DED000B02281AD0EF
:1010A00000F032FB51EC100B01F012FD06B041ECE8
:1010B000100B10BD9DED021B9DED000B012000F0FB
:1010C00057FC06B010BD9DED021B9DED000B00F01E
:1010D0001BFB06B010BD012000F04AFC51EC100BC8
:1010E00001F0F6FC06B041EC100B10BD0000000052
:1010F0000000000000000000FB21E93F0000F07F3D
:1011000000B510EE101A2DED028B81B0524A6846E0
:10111000B2EB410F2ED94FF0E640B0EB410F94BF38
:1011200000204FF0FF3000900098B0EE408A002879
:101130006ADB10F0010F4BD068EE080A9FED471AEA
:101140009FED470A00EE810A9FED461A10F0020F4C
:1011500000EE801AB7EE000A00EE810A02BF01B06D
:10116000BDEC028B00BD00BF01B0B1EE400ABDEC8A
:10117000028B00BD3C4B21F00042934241D911F05B
:10118000004FDFED3A0A20EE201ADFED390A19BFD1
:1011900031EE601A71EE200A31EE201A71EE600A0B
:1011A000BDEEE01A11EE100A9FED321A00F00300B6
:1011B00000EEC10A9FED301A009000EEC10A9FEDCB
:1011C0002F1A00EEC10A9FED2E1A00EEC10AABE7FE
:1011D00028EE080A9FED2B1ADFED2B0A10F0020F04
:1011E00040EE410A9FED291A00EE201A61EE000A36
:1011F000B0EE480A08EE200AB6D101B0BDEC028B71
:1012000000BD00F08FFC8FE718EE100A4000B0F12F
:101210007F4F0DD218EE100AFFF7BAFC042808BF62
:1012200000F078FCB0EE480A01B0BDEC028B00BDC6
:1012300009D10120FFF7A5F801B0BDEC028B5DF8E4
:1012400004EB00F05FBC01B0B0EE480ABDEC028BCD
:101250005DF804EB00F050BCB61F927EB93AB2BA0A
:10126000CA9F2A3DDDFFFFBE490E494683F9223F52
:101270000000004B0000C93F00A0FD390020A23350
:101280001A61342C336D4C39DA82083CA0AA2ABE8C
:1012900010B52DED028BB1EEC08A18EE100A20F0C9
:1012A0000040C0F1FF40C00F0AD010EE100A20F03D
:1012B0000040C0F1FF40C00F04BF0120FFF761F8FC
:1012C000B0EE480ABDEC028B10BD0000000000002B
:1012D0002DE9F14F04462DED020B2DED088B8AB060
:1012E0009FEDE70B80ED020B139EE74826F00045CB
:1012F00085420ADC9DED120B002084ED000B0AB044
:10130000BDEC088B03B0BDE8F08FE0489FEDE0AB8B
:101310009FEDE1BBA84247DDE14F9FEDE39B9FEDD1
:10132000E48B9DED120B53EC1A2B51EC100B002E9D
:101330001CDD02F017F841EC100BBD4208D053EC55
:101340001B2B51EC100B02F00DF8C4E900010BE06F
:1013500053EC192B51EC100B02F004F853EC182B42
:1013600002F000F8C4E900010120C8E701F0EEFB3B
:1013700041EC100BBD4208D053EC1B2B51EC100B71
:1013800001F0E4FBC4E900010BE053EC192B51EC34
:10139000100B01F0DBFB53EC182B01F0D7FBC4E979
:1013A00000014FF0FF30AAE7C348A84279DB9DED6A
:1013B000120B51EC100B00F021FF41EC180B9FEDCC
:1013C000C00B53EC102B01F01BFE9FEDBF1B53EC29
:1013D000112B01F0BBFB01F0B9FD074601F0E5FD63
:1013E00041EC190B53EC1A2B01F00AFE53EC182BAD
:1013F00001F0ACFF41EC180B53EC1B2B51EC190B1B
:1014000001F0FEFDDFF8C8A241EC100B4FEA1558C1
:101410000125FA4453EC102B51EC180B01F0A2FFFC
:10142000032DC4E900013DD0C1F30A5005EB45117D
:10143000A8EB00001139814234DA0AEB051BB0EE4B
:1014400048AA9BED000BF0EE68AA53EC102B51EC70
:10145000190B01F0D5FD41EC1B0B51EC1A0B53ECB1
:101460001B2B01F07FFF41EC180B51EC1A0B53ECD6
:10147000182B01F077FF53EC1B2B01F073FF9BED52
:10148000020B41EC1A0B53EC102B51EC190B01F031
:10149000B7FD53EC1A2B01F065FF41EC100B6D1CEE
:1014A000B8E70EE0002EA8BF3846BFF628AF94ED8F
:1014B000000B51EC100B01F00BFBC4E9000178426A
:1014C0001DE7C6F3130040F4801EC6F30A50A0F2D5
:1014D000F530471100F01F05C5F12000DDF848B0D8
:1014E00008900020069007900520EC467949002DD1
:1014F00007EB0002794408BF51F8221009D051F8D7
:10150000223001EB8201AB404A68089922FA01F1CE
:101510001943A1FB0E26A1FB0B131A449A4234BFB8
:101520000123002303EB06080CEB8003D3E901A69B
:101530000E448E4234BF0121002192448A4411B1ED
:10154000924502D903E0924501D2012100E0002139
:10155000C3E901A641444CF82010011EA0F101008E
:10156000C4DC029800F10050850F0298DDE90367A2
:101570008000DDF8148001F018FD41EC1A0B3046B4
:1015800001F02AFD9FED541B53EC112B01F038FDA7
:1015900041EC1B0B384601F01FFD9FED511B53EC36
:1015A000112B01F02DFD41EC180B404601F014FD0C
:1015B0009FED4D1B53EC112B01F022FD41EC190B5B
:1015C00051EC180B53EC192B01F0C0FA53EC1B2B08
:1015D00001F0BCFA53EC1A2B01F0B8FACDE908017E
:1015E000002008909DED080B53EC1A2B51EC100BCA
:1015F00001F0B8FE53EC1B2B01F0B4FE53EC182B9A
:1016000001F0B0FE53EC192B01F0A0FE9FED381B4A
:1016100053EC112B01F0F4FC9FED370B41EC180B50
:1016200053EC102B9DED080B51EC100B01F0E8FC76
:1016300053EC182B01F08AFA9FED310B41EC180B9B
:1016400053EC102B9DED080B51EC100B01F0D8FC66
:1016500053EC182B01F07AFA41EC100B139810F0B0
:10166000004F06D06D4251EC100B01F031FA41EC05
:10167000100B284684ED000B41E60000000000003E
:101680000000000000000000FB21E93F7CD902407F
:1016900000004054FB21F93F3163621A61B4D03D30
:1016A000FB21F93F000000000000601A61B4D03D4A
:1016B0007370032E8A19A33BFB21394100000000FF
:1016C00083C8C96D305FE43F000000000000E03FC8
:1016D0004A22000098210000000000000000103E97
:1016E000000000000000103C000000000000103A64
:1016F000182D4454FB21F93D3326A611460B113C0D
:1017000000000054FB21F93D10B52DED040B2DED2B
:10171000088B82B0B0EE419AF0EE619A0B9820F0FF
:1017200000449FED4BABB4F1795F11DA9DED0A0BEC
:1017300051EC100B01F00AFC002801BFB0EE4A0A80
:10174000F0EE6A0A02B0BDEC088B04BF04B010BD15
:101750009DED0A0B53EC102B51EC100B01F050FCDB
:1017600041EC180B3C480621B0EE480AF0EE680A3E
:10177000784400F081F853EC182B51EC100B01F079
:101780003FFC9DED0A0B41EC1B0B53EC192B51EC6C
:10179000100B01F035FC41EC190B53EC1B2B51ECF9
:1017A000180B01F02DFC53EC192B01F0DBFD9FED24
:1017B0002C0B41EC190B53EC102B51EC180B01F0D6
:1017C0001FFC41EC100B2848844210DA53EC192B13
:1017D00051EC100B01F0C6FD53EC1A2B01F0B6FDD5
:1017E00041EC100B02B0BDEC088B04B010BD1F48DB
:1017F000A042BCBF9FED1E1B8DED001B06DBA4F5B8
:1018000000100190002000909DED001B51EC100B8A
:1018100053EC112B01F0A6FD9DED000B41EC180BD4
:1018200053EC102B51EC1A0B01F09CFD41EC1A0B00
:1018300053EC192B51EC180B01F094FD53EC1A2BBF
:1018400001F084FD41EC100BCCE70000000000002B
:10185000000000000000F03FBC1E0000000000007F
:10186000000000000000E03F3333D33F0000E93FB9
:10187000000000000000D23F70B504462DED028B41
:101880004D1E00EBC500B0EE408AF0EE608A90ED90
:10189000000B35F0060017D053EC182B51EC100B51
:1018A00001F0AEFB41EC100B6D1E04EBC50090ED9A
:1018B000001B51EC100B53EC112B01F047F941ECDC
:1018C000100B35F00600E7D1022D36D0042D1CD0C8
:1018D000062D1CBFBDEC028B70BD53EC182B51ECD8
:1018E000100B01F08DFB94ED0A1B53EC112B01F052
:1018F0002DF953EC182B01F083FB94ED081B53ECEE
:10190000112B01F023F941EC100B53EC182B51EC87
:10191000100B01F075FB94ED061B53EC112B01F03D
:1019200015F953EC182B01F06BFB94ED040B53EC01
:10193000102B01F00BF941EC100B53EC182B51EC70
:10194000100B01F05DFB94ED021B53EC112B01F029
:10195000FDF853EC182B01F053FB94ED001B53ECF6
:10196000112B01F0F3F8BDEC028B41EC100B70BDB4
:1019700031B504462DED040B2DED0A8BB0EE41BAC6
:10198000F0EE61BA0B989DED0A0B20F00040B0F12B
:10199000795F0DDA51EC100BFFF7E2F8042808BF6D
:1019A00000F09AF89DED0A0BBDEC0A8B05B030BD36
:1019B00053EC102B51EC100B01F022FB41EC180BF7
:1019C0009DED0A0B53EC182B51EC100B01F018FB9A
:1019D00041EC190B2C48B0EE480AF0EE680A0521DC
:1019E0007844FFF749FF9FED2ACBB0EE40AAF0EE16
:1019F00060AA9CB353EC1C2B51EC190B01F000FBBB
:101A000041EC1C0B53EC1A2B51EC190B01F0F8FABA
:101A10009FED210B41EC190B53EC102B51EC1B0BE0
:101A200001F0EEFA53EC192B01F09CFC53EC182B4F
:101A300001F0E6FA53EC1B2B01F094FC53EC1C2B49
:101A400001F090FC9DED0A1B53EC112B01F07EFC84
:101A5000BDEC0A8B05B041EC100B30BDFFE753EC39
:101A60001A2B51EC180B01F0CBFA53EC1C2B01F0A4
:101A70006DF853EC192B01F0C3FA9DED0A1B53ECE2
:101A8000112B01F063F8E3E7641D00000000000083
:101A9000495555555555C5BF000000000000E03FB1
:101AA00010B553EC102B51EC100B01F04FF841EC3A
:101AB000100B10BD000000009FED050B10B553EC9E
:101AC000102B51EC100B01F0E9F841EC100B10BD9C
:101AD00000000000000000009FED050B10B553EC66
:101AE000102B51EC100B01F08BFA41EC100B10BDD8
:101AF000000000000000001030EE000A704730EED9
:101B0000200A7047DFED020A80EEA00A704700004D
:101B1000000000009FED020A20EE000A704700005E
:101B2000000000102DE9F0014FF07F42B2EB410FB1
:101B30009FBF4FF0FF310160BDE8F00170474FF0EB
:101B4000004242EA0123C1F3C752783A551112F01C
:101B50001F0C434CCCF120067C44C1F3C752A2F1C8
:101B600078024FEA621204EB820254F8254008BF63
:101B7000D2E9015612D0556804FA0CF425FA06F79A
:101B80003C43976805FA0CF527FA06F8D26807FA7D
:101B90000CFCF24045EA08054CEA0206A4FB034CA3
:101BA000A5FB0352A6FB03631D449D4234BF0126DF
:101BB00000261319334416B1934202D903E093422D
:101BC00001D2012200E00022624402F1200C9206C0
:101BD000DC0C42EA443200EE102A5B03DFED210AFE
:101BE000F8EEC01A00EE103A4FEA9C1C11F0004FBC
:101BF000B8EE400AC0F800C020EE201A00EE105ADD
:101C0000DFED190AB8EE400A20EE200A71EE810AD3
:101C100070EE800A10EE902A02F500626FF30B025C
:101C200000EE902A70EEE11A31EEC11ADFED101AC3
:101C300030EE411A9FED0D0A20EE800A01EE210AD6
:101C40009FED0C1A00EE810A04BFBDE8F001704759
:101C5000CCF180510160BDE8F001B1EE400A70475F
:101C6000CC1B0000000000360000802C22AAFD29B9
:101C7000DB0FC92F0000C92F10B52DED068BB0EE7C
:101C8000408A18EE100A01F057FC41EC1A0B9FED48
:101C9000101BB0EE4A0AF0EE6A0AFFF749F9B0EEFF
:101CA000409AF0EE609A51EC190B00F01DFF08EE1F
:101CB000900AF5EEC08AF1EE10FA04DBB0EE680A85
:101CC000BDEC068B10BD9FED040A38EE800AF7E7E5
:101CD00000000060FB211940DB0FC94000BF7047C6
:101CE0002848006840F0010026490860084600685E
:101CF00040F48000086023481430006840F480708D
:101D00002049143108602048006840F03F001E4917
:101D100008601E48006840F480301D49C1F8040383
:101D2000881548604FF4407088600846806820F449
:101D3000806088600846806840F00100886008463E
:101D4000806820F0020088600846806820F070609B
:101D500088600846806840F0606088600846806857
:101D600040F0805088600846C06A20F47000C86265
:101D70000846C06A40F48000C8624FF4E1504863EE
:101D80007047000030380240000002400423014048
:101D9000002001407CB504460D4600BFB8480068ED
:101DA00040F00400B649086000BF00BF0846006864
:101DB00040F00100086000BF00BF0846006840F026
:101DC0000400086000BF00BF0846006840F0100033
:101DD000086000BF00BF0846006840F004000860CB
:101DE00000BF00BF0846006840F01000086000BF58
:101DF00000BF0846006840F00100086000BF00BF57
:101E00009F481430006840F002009D49143108607A
:101E100000BF012000900023022240210190994838
:101E200000F0FEFC0120009000230222802101909E
:101E3000954800F0F5FC012000900023022280214B
:101E40000190904800F0ECFC012000900023022259
:101E5000810301908D4800F0E3FC012000900023F5
:101E6000022201020190874800F0DAFC0120009074
:101E700000230222C1030190844800F0D1FC01201C
:101E8000009000230222402101907F4800F0C8FC0E
:101E9000022240217B4800F083FC042280217A4802
:101EA00000F07EFC02228021764800F079FC0322BB
:101EB0004FF48041754800F073FC0222D101714853
:101EC00000F06EFC03224FF40041704800F068FC03
:101ED000042240216C4800F063FC6D480460001F40
:101EE000056001205FE0022817DC694914390968A0
:101EF000421ED200121D062393401943644A143A2D
:101F0000116011460968421ED200D21C0123934081
:101F100019435F4A143A116018E0042816DC5C4942
:101F200010390968C21ED200121D062393401943BE
:101F3000574A103A116011460968C21ED200D21CDD
:101F4000012393401943524A103A116050490C3909
:101F50000968421E930001229A4011434C4A0C3AF0
:101F6000116011460968421E9200521C01239340E1
:101F70001943474A0C3A116011460968421E920003
:101F8000921C012393401943414A0C3A11601146B7
:101F90000968421E9200D21C0123934019433C4A17
:101FA0000C3A1160401C04289DDB39482C3800682D
:101FB00020F0600036492C3908600846006840F07F
:101FC000200008600846006840F08000086008466D
:101FD000006840F400700860081D006820F0700080
:101FE000091D08600846006840F020000860284885
:101FF000183000682649183108600846006840F427
:10200000804008600846006808600846006840F4A0
:10201000805008601E482038006840F001001C49CC
:1020200020390860081D006820F00100091D0860C3
:102030002C200121002804DB0A07130E154A135433
:1020400006E00A07160E144A00F00F031B1FD654B1
:1020500000BF2C20002809DB00F01F020121914065
:102060004209920002F1E022C2F8001100BF0848C4
:102070002C38006840F0010005492C3908607CBD0F
:1020800030380240000802400000024000040240D4
:102090002C04014000E400E018ED00E0124A126850
:1020A00022F0FF02104B1A601A46126842F06402D6
:1020B0001A601A46126842F400421A60012904D0DC
:1020C000022906D003290CD107E0074A103A106014
:1020D00008E0054A0C3A106004E0034A083A106030
:1020E00000E000BF00BF7047440401404FF0E02112
:1020F000096941F004014FF0E022116105490860CF
:102100001146096941F0010111616FF0704151619F
:10211000704700000000002010B500203249086020
:1021200000BF3148006800F001000028F9D12E48B6
:102130000838006840F03D002B49083908602B48FA
:102140002949083108602A48091D086005202649E8
:10215000091D0860081F0068091F0860084600681C
:1021600040F4807008600846006840F480600860B1
:102170000846006840F4006008600846006840F4C3
:10218000005008600846006808600846006808605B
:102190000846006840F0100008603820012100283F
:1021A00004DB0A07130E134A135406E00A07140E41
:1021B000114A00F00F031B1FD45400BF3820002821
:1021C00009DB00F01F02012191404209920002F157
:1021D000E022C2F8001100BF0348006840F001008F
:1021E0000149086010BD0000106402404C2001400D
:1021F0003C03002000E400E018ED00E082B0CDE9EF
:10220000000121F0004001909DED000B02B051EC67
:10221000100B704707202B498883DC212948C18394
:10222000B3EE040A80ED080A9FED270A80ED090A43
:102230009FED260A80ED0A0A9FED230A80ED0B0A26
:102240009FED230A80ED0C0A9FED220A80ED0D0A16
:102250009FED210A80ED100A9FED200A80ED110A02
:102260009FED1F0A80ED120AB2EE040A80ED130AF8
:1022700090ED0D0A80ED0F0A90ED0A0A80ED0E0A2E
:102280009FED180A80ED140A9FED130A80ED150AE0
:102290009FED150A80ED160A9FED140A80ED170ACE
:1022A000B1EE040A80ED2B0AB7EE000A80ED190AA0
:1022B000B1EE080A80ED210A0020024981F8600091
:1022C00070470000480300203333A34033331340EA
:1022D00033333340F6285C3F0AD7233C00401C468A
:1022E00000007A44CDCCCC3D000000000000C84284
:1022F00010B52DED0A8B00F059F92D48D0ED1C0AD0
:10230000808B00EE100AB8EE400A20EE800A2848C2
:1023100080ED1D0A90ED1E0A10EE101A084601F01D
:102320000BF941EC1A0B224890ED1D0A10EE101A21
:10233000084601F001F941EC1C0B9FED1E0B53EC1C
:10234000102B00F05DFE41EC1B0B53EC1A2B00F040
:10235000FDFB41EC190B00F0C7FB08EE100AB0EED4
:10236000480AFFF789FC124880ED1E0A90ED1E0A0C
:10237000B0EE401A90ED210AF0EE400A00F18C0117
:1023800088309FED0E0A00F053F8094890ED231AAB
:10239000F0EE410A90ED221AB0EE410A00F1A002DF
:1023A000911E9C30FEF73CFABDEC0A8B10BD00007C
:1023B00048030020FCA9F1D24D62503F000000000C
:1023C00000BF054A126802F04002002AF9D0C2B2EA
:1023D000014B5A60704700000010014070B505467F
:1023E0000C4600BF1048006840F002000E4908602B
:1023F00000BF0E480560001F04600C4820380068CC
:1024000040F0010009492039086008482C3800686C
:1024100040F0010005492C39086002231D220321E8
:10242000012000F06DFA70BD403802402C040040DD
:1024300070B52DED0A8BB0EE408AF0EE608AB0EEFA
:10244000419A04460D4619EE100A01F075F841EC68
:102450001C0BB0EE4C0AF0EE6C0AFEF705FDB0EE78
:1024600040BAF0EE60BA51EC1B0B00F03DFB09EEF8
:10247000900A19EE100A01F05FF841EC1C0BB0EE67
:102480004C0AF0EE6C0AFEF7D7FDB0EE40BAF0EE63
:1024900060BA51EC1B0B00F027FB0AEE100A28EE85
:1024A000290A08EECA0A84ED000A28EE0A0A08EE94
:1024B000A90A85ED000ABDEC0A8B70BD1CB500BFF2
:1024C0001548006840F020001349086000BF00BFB5
:1024D0000846006840F02000086000BF012000901E
:1024E00000230246410201900C4800F099F90120B6
:1024F00000900023024681020190084800F090F904
:1025000001225102054800F07FF90122910203489F
:1025100000F07AF91CBD000030380240001402407F
:1025200000BF0723022208214FF4A87000F040FAF0
:10253000A820FFF7DBFD4FF4E131542000F058FAFA
:10254000FFF7BCFFFEF7BAF8FEF742F9FDF7DCFF34
:10255000FFF7C6FBFFF7E0FDA72140F2E730FFF7EA
:1025600019FC42F2CF016320FFF738FFFFF752FE5C
:1025700011E0FEF73BF808480079012809D1074827
:10258000B0F8A030B0F89E20B0F89C1004A0FDF781
:1025900073FEFEF705F8ECE7D400002048030020A6
:1025A000643A25642C25642C25640A0010B52DEDB1
:1025B000048B154890ED1C0AD0ED2B0AB4EEE00A0E
:1025C000F1EE10FA1DD890ED1C0AD0ED190AB4EE08
:1025D000E00AF1EE10FA14D290ED1C0A10EE101A77
:1025E000084600F0A9FF41EC190B9FED080B53ECD6
:1025F000102B00F0ABFA41EC180B00F075FA024911
:102600000867BDEC048B10BD480300207B14AE4767
:10261000E17A843FF0B504460D46002100200026F3
:102620005C4F3F6847F48037DFF868C1CCF8007032
:1026300000E0491C574F3F6807F400371FB947F6C1
:10264000FF77B942F5D347F6FF77B94201D10120B0
:102650009EE0504F40373F6847F08057DFF834C165
:102660000CF1400CCCF800704B4F3F6847F44047EA
:10267000DFF824C1CCF80070464F3F1D3F6805F0DD
:102680003F0C47EA0C07DFF80CC10CF1040CCCF846
:10269000007067463F6847EA8417CCF800706746C9
:1026A0003F684FF0010CCCEB520C47EA0C47DFF8C7
:1026B000E4C00CF1040CCCF8007067463F6847EAB0
:1026C0000367CCF8007067463F6847F48007CCF892
:1026D00000700CF104073F680CF1040CCCF800709A
:1026E00067463F6847F4A057CCF8007067463F68DC
:1026F00047F40047CCF80070264F3F6847F08077DA
:10270000DFF890C0CCF80070002105E0491CB1F55D
:10271000001F01D3022005E01E4F3F6807F000773D
:10272000002FF3D000BF1D4F3F6847F48077DFF8DC
:102730006CC0CCF8007067463F6847F40077CCF86F
:10274000007067463F6847F48067CCF800706746C2
:102750003F6847F00507CCF800700E4F08373F6818
:1027600047F00207DFF82CC00CF1080CCCF8007021
:1027700000210AE0074F08373F68C7F38106491C6C
:10278000B1F5001F01D3042001E0032EF2D100BFF8
:10279000F0BD00000038024000700040003C0240E4
:1027A000F0B5034600200024002500BF29E00126E3
:1027B00006FA00F401EA0405A54221D1C70803F195
:1027C000200656F8276047074FEAD76C0F2707FA0D
:1027D0000CF7BE434FEAD00C03F1200747F82C60FA
:1027E000C70803F1200656F827604707FF0E02FAD4
:1027F00007F73E434FEAD00C03F1200747F82C605F
:10280000401C1028D3D3F0BD02F001031BB1836933
:102810000B43836103E0836943EA014383617047AB
:102820002DE9F0470C46DDE90867002100258C46BC
:1028300000BF60E04FF0010808FA01F504EA050C5A
:10284000AC4557D1D0F800804FEA410A4FF0030958
:1028500009FA0AF928EA0908C0F80080D0F80080CF
:102860004FEA410902FA09F948EA0908C0F800806C
:10287000012A01D0022A27D1D0F808804FEA410A64
:102880004FF0030909FA0AF928EA0908C0F8088094
:10289000D0F808804FEA410906FA09F948EA090820
:1028A000C0F80880D0F804904FF0010808FA01F849
:1028B00029EA0809C0F80490D0F8048003FA01F965
:1028C00048EA0908C0F80480D0F80C804FEA410AB1
:1028D0004FF0030909FA0AF928EA0908C0F80C8040
:1028E000D0F80C804FEA410907FA09F948EA0908CB
:1028F000C0F80C80491C10299CD3BDE8F08700006B
:102900002DE9F0410746884614461D46284600F04A
:1029100033F8C5F1040007FA00F60F20284100EA59
:102920000800064306F00F06E21704EBD2625211CC
:10293000920002F1E022D2F800212146E31704EBD5
:10294000D3635B11A4EB431C012303FA0CF31A437A
:102950002046E31704EBD3635B119B0003F1E023F4
:10296000C3F800210348005D40EA061001490855FC
:10297000BDE8F08100E400E00146072323EA0102FC
:102980001202054B18684FF6FF031840034B18431B
:102990001043014B186070470CED00E00000FA0591
:1029A0004A0A52020243014B1A60704708ED00E0E8
:1029B000F0B504460D4616461F4601200B49086037
:1029C00000200A4908310860091F086007490C31D6
:1029D00008603B46324629462046FFF71BFE002191
:1029E0004FF00060FFF7DCFFF0BD00000038024050
:1029F0007CB506460C4600BF3148006840F0010037
:102A00002F49086000BF00BF0846006840F0010081
:102A1000086000BF00BF2A481430006840F0100072
:102A200027491431086000BF0120009000230222D2
:102A3000410201902348FFF7F3FE0120009000239C
:102A40000222810201901F48FFF7EAFE07224FF49D
:102A500000711C48FFF7A4FE07224FF4806119485B
:102A6000FFF79EFE1848704300EB5400B0FBF4F5EE
:102A70001648856000201549C8600846C068C860CF
:102A80000846C068C8600846C06840F00800C860D2
:102A90000846C06840F00400C8600846C06840F0BE
:102AA0002000C8600223252203210846FFF728FFE3
:102AB0000648C06840F400500449C8607CBD00006E
:102AC000303802400000024040420F000010014038
:102AD00081F00041704780F00040704721F00041D4
:102AE000704720F00040704721F00042A2F1605290
:102AF000B2F5801F01F0004328BFD2F17F6C0BD9E3
:102B00005FEA001C43EAC20242EB507018BF7047F4
:102B100028BF20F001007047B2F5801FBCBF1846E7
:102B200070474FEA410C1CF5001F02D2084600F026
:102B300079BD70B500F00EFB00000089FFF7F6BF0D
:102B40004FF00040A0F580007047000010B591EAFA
:102B5000030F48BF83F0004300F10C84841A71EB2B
:102B6000030C05D2121943EB0C03001B61EB0C01A3
:102B7000DFF824E14FEA1154A4EB135C1EEA430F83
:102B800018BF9EEA445F73D023EA0E03DCF1200EE7
:102B900021EA045143F4801332D322FA0CFE10EBE5
:102BA0000E0023FA0CFE41EB0E01CCF1200E03FACD
:102BB0000EFE10EB0E0051F10001B1F5801FCCF1BB
:102BC000200E32D201EB045112FA0EF2BDE8104091
:102BD00058BF7047401C38BF5FEA420218BF7047B9
:102BE000002814BF20F0010041F100014FEA410329
:102BF00013F5001F38BF7047A1F1C04100F0A0BB22
:102C0000012A43EB0302ACF1200CDCF11F0E32BFB2
:102C10004FF0000E23FA0CF310EB030041EB0451CC
:102C2000B4EB115FD0D0A1EB045101F5801149083C
:102C30005FEA300001EB04510ED350F1000038BFC1
:102C400012FA0EFE08D1BDE81040C9E7401C38BF9B
:102C50005FEA4202CAD1C3E7BDE810404FEA410330
:102C600013F5001F38BF7047A1F1C04100F068BBE9
:102C70009EEA445F08D011EA5E0FBDE8104004BF31
:102C800001F0004100207047BDE8104070B500F031
:102C900061FA00BF64FBBE3E0000E0FF2DE9C041C9
:102CA00030B4DFF8A0C23CEA111418BF3CEA131498
:102CB00000F0EC8081EA03051CEA111444EAD574A3
:102CC00018BF1CEA131500F0C780A4EB05044FF0F1
:102CD000004545EAC12145EAC32341EA505143EA90
:102CE000525304F17F74994204F500344FEAC02036
:102CF0004FEAC22208BF904200F09C804FEA136561
:102D00000FF24016765D4FEA134506FB05F7C7F153
:102D1000807706FB07F74FEAD737A7FB03687642B1
:102D2000C8F58038A7FB06CE38BFA8F1010807FB1D
:102D300008E64FF0000EA6FB028CE6FB03CEDCF1AA
:102D4000000CCEF1004E38BFAEF1010EA6FB0C58C0
:102D50004FF000074FF00005E6FB0E87A1FB08C609
:102D6000A0FB07CE16EB0E0645F10005E1FB07655B
:102D700015F1E04E7EBFA4F580345FEA46066D4152
:102D800016F1800745F100054FEA17274FEA06665E
:102D900047EA0567A6F1DE46B6F1805F4FEA1525E2
:102DA0001FD9384624F0010C05EBC471BCF1FE6F4D
:102DB00001EB0C1102D8F0BCBDE8008124425CBFDD
:102DC00001F5801E9EEAC47F02D4F0BCBDE80081FC
:102DD000244238D4F0BCA1F1C041BDE8004100F06C
:102DE000AFBA4FEAD22242EA43524FEAD323A7FBBB
:102DF00002864FEAD02040EA415007FB03661EEAF4
:102E00000E0F4FEAD12105FB026658BFA6EB005614
:102E1000B6EB00564FEA520E4EEAC37E18EB0E0E8A
:102E200056EB530EBDD518EB02085E417F1C55F1E1
:102E30000005B6E74FF480154FF000074FF000068D
:102E40004FF00008ADE7F0BC4FF0000001F1C041C9
:102E500001F00041BDE8008111EA0C1F0CEA1315D6
:102E600000D00CE013EA0C1F00F025804FF00000AA
:102E7000F0BC81EA030101F00041BDE80081F0BC33
:102E8000BDE8004181EA030100F05ABAF0BCBDE898
:102E9000004170B500F05EF9097EFC3E00F007B815
:102EA00081EA03014FF0000001F00041704781EA20
:102EB000030100F045BAF0BCBDE800414FF000004E
:102EC00021497047FFFDFBF9F7F5F4F2F0EEEDEB69
:102ED000E9E8E6E4E3E1E0DEDDDBDAD8D7D5D4D318
:102EE000D1D0CFCDCCCBCAC8C7C6C5C4C2C1C0BF64
:102EF000BEBDBCBBBAB9B8B7B6B5B4B3B2B1B0AF6A
:102F0000AEADACABAAA9A8A8A7A6A5A4A3A3A2A14D
:102F1000A09F9F9E9D9C9C9B9A9999989797969508
:102F200095949393929191908F8F8E8E8D8C8C8BA4
:102F30008B8A89898888878786858584848383822C
:102F4000828181800000FF070000F87F4FEA410383
:102F50004FEA5353A3F58063D3F11E03C8BFD3F1E7
:102F6000210C0CDD4FF0004242EAC12242EA5052ED
:102F700032FA03FC8CEAE17CACEBE1707047102B79
:102F8000C4BF0020704703F5787CBCF1FF3F04D03C
:102F90006FF0004282EA2100704770B500F0DAF865
:102FA0004992248000207047F2E710F0004248BFA9
:102FB0004042B0FA80F310FA03F10AD0C3F11D03C6
:102FC00003F580634FEA415002EB035202EBD1213B
:102FD00070474FF000007047B0FA80F310FA03F129
:102FE0000AD0C3F11D0303F580634FEA41504FEA55
:102FF000035202EBD12170474FF0000070470000F0
:10300000DFF848C170B51CEA111E1EBF1CEA13157B
:103010009EEA0C0F95EA0C0F00F06F8081EA030422
:1030200023EA4C134EEAD47E21EA4C1141F480117C
:1030300043F48013AE44A1FB024CA0FB0365AEF148
:103040007F7E361955EB0C05A1FB034C4CF10003B8
:10305000A0FB021C16EB0C06654153F1000309426C
:1030600018BF46F0010613F4007F0BD14FEA03317D
:103070004FEA0530340341EA155140EA16506FF02B
:1030800003020AE04FEAC3214FEAC520F40241EAF5
:10309000555140EA56506FF0020202EB2E4201EB0E
:1030A000025585EACE710AD05FEA440C18BF24F0BD
:1030B000004450F1000041F1000120EAD47040F2D8
:1030C000FE7C624500D270BDA84214BF4FF0804420
:1030D0004FF04044002E08BF0024BEF1806FA8BF0F
:1030E000A1F1C041BDE8704080F22A814FF000009C
:1030F00001F1C04101F0004170479EEA0C0F0CEA5B
:10310000131518BF95EA0C0F06D04FF0000081EAA6
:10311000030E0EF0004170BD00F01CF88900013E66
:1031200000F007B800F009B84FEA430C5FEA5C5CB6
:1031300008D081EA030100F003B94FEA410C5FEACD
:103140005C5CF6D14FF00000014970470000FF07BA
:103150000000F87F0EF1020E2EF0030E5EF8046BF5
:10316000364205D4012A43EB030515F5001F12D89A
:10317000012841EB010C1CF5001F0CD80ED14FEAC1
:10318000D17C15F5001F0CEB4C0C0CF1020C08BFA8
:103190004CEBD37C04E04FF0080C01E04FEAD37C09
:1031A0000CEB4C0526FA05F606F00706B6F1040C02
:1031B00006D20EEB860CBDE870404CF0010C604767
:1031C000DFE80CF0090B02024FF000414FF0000065
:1031D000A1F5002170BD19461046012851EB0104EC
:1031E00018BFD4F5001484BF002001F0004170BD69
:1031F000DFF844C170B53CEA111418BF3CEA13155E
:1032000000F08F8011F1004F1CEA13150CEA111425
:1032100068BF45F0050518BF11EA0C1F00F0798062
:103220002E4621EA4C1123EA4C1341F4801143F459
:103230008013A5F58035AC423DDD801A9941A4F597
:10324000803609D54042C1F1000134BFB1F101011E
:10325000B1F1000185F0010511F4F01F08D011F45F
:10326000801FE8D1400041EB0101A4F58034F6E76E
:1032700021F00041B1FA81F6202E04BFB0FA80FEA1
:103280000EF12006A6F10B06B6F1200EA4EB0644C3
:103290000CD2C6F1200E01FA06F120FA0EF641EA30
:1032A0000601CEF1200600FA06F003E000FA0EF166
:1032B0004FF00000BFE750EA410E23D04FEA244E02
:1032C000BEEB254F0FDB994208BF904204D00AD3D2
:1032D000520043EB0303B0E74FEA1646B6EB144F38
:1032E00008BF85F00105B4F5803401EB041181EAD3
:1032F000C57100DB70BD01F1C0414FF0000001F06D
:10330000004170BD4FEA45714FF0000001F00041EF
:1033100070BD1CEA131F09D04FF0000001F00041FE
:1033200070BDFFF717FF00BFEDFFFF3EBDE8704027
:103330004FF00000014970470000FF070000F87FD0
:103340000808A0F500114FEA3101704791EA030F18
:1033500010B581F000413FF501AC83F0004300F06F
:1033600009B8000010B591EA030F48BF83F000438D
:103370003FF5F4AB841A71EB030C07D212198CF0F1
:10338000004C43EB0C03001B61EB0C01DFF8A4E1E4
:103390004FEA1154A4EB135C1EEA430F18BF9EEAD8
:1033A000445F00F0B08023EA6E03524221EA0451E8
:1033B000C3EB6E0338BF5B1EDCF1200E25D322FA6F
:1033C0000CFE10EB0E0043FA0CFE41EB0E01CCF1AB
:1033D000200E03FA0EFE10EB0E0051F10001CCF1AD
:1033E000200E29D412FA0EF201EB0451BDE8104070
:1033F00058BF7047401C1CBFB2F1004F70470028F7
:103400000CBF491C20F00100704712EB020E43EB89
:10341000030218BF4FF0010E4EEA4202ACF1200C3D
:10342000DCF11E0E54D943FA0CFE10EB0E0051F1E4
:10343000FF31CCF11E0ED5D50EF1010E12FA0EFEA3
:10344000404141EB010101EB445C5FEA5C5C10D957
:1034500010EBDE7001EB045138BFBEF1004FBDE848
:10346000104018BF704700280CBF491C20F0010015
:10347000704730D24FEAD42C11F5001124F40064C7
:103480001BD0B1FA81F20B3AA41AA41ED2F1200388
:10349000914030FA03F31943904001EBCC71002CBA
:1034A00001EB0451BDE81040A8BF704701F1C041D5
:1034B0004FF0000001F000417047B0FA80F310FABD
:1034C00003F100D110BDE41A173C4805C90AE4E72E
:1034D00001EB045110BD491001EB0451BDE810404F
:1034E0004FEA300002E04FF0000170474A0008BF89
:1034F0000042F8D0B2F5001F28BF704701F000412C
:103500004FF0000070479EEA445F07D011EA5E0F5B
:10351000BDE8104004BF002100207047BDE8104006
:1035200070B5FFF717FE00BF40DFF63E83F00041A5
:10353000104670470000E0FF43004FEAD30C4FEA0B
:103540003C0C43401FBF40070CF1605113F0FE4F8D
:1035500070471CF0006F03D100200CF00041704751
:103560000CF0004343EA507010B540EACC0000F084
:103570000EF800BF000000924FEA0001FFF7E0BE26
:103580004FF000414FF00000A1F5002170470EF10F
:10359000020E2EF0030E5EF8044B244204D44FEAD0
:1035A0004102B2F17F4F11D84FEA4003B3F17F4F90
:1035B0000CD80ED14FEAD07CB2F17F4F0CEB4C0C03
:1035C0000CF1020C08BF4CEBD17C04E04FF0080C6E
:1035D00001E04FEAD17C0CEB4C0324FA03F404F035
:1035E0000704B4F1040C06D20EEB840CBDE81040C5
:1035F0004CF0010C6047DFE80CF0070802024FF0C6
:103600000040A0F5800010BD0846420018BFD2F16E
:10361000807288BF00F0004010BD4FF04070E1EEB6
:10362000100A7047FF2141EAD050C00570470000E2
:103630004C5555555555A53F7751C1166CC156BFD0
:103640009015CB19A001FA3EAD529C804F7E92BEE0
:10365000C4B1B4BD9EEE213ED43888BEE9FAA8BDFF
:1036600000004054FB21F93F3163621A61B4D03D40
:103670000000601A61B4D03D7370032E8A19A33B19
:103680000000002E8A19A33BC14920259A837B396B
:1036900000000000000000006E83F9A22915444ECE
:1036A000D15727FCC0DD34F5999562DB4190433C4E
:1036B000AB6351FE61C5BBDE3A6E24B7E0D24D422A
:1036C000EA2E49061C92D1091CEB1DFE3EA729B12A
:1036D000F53582E88444BB2E26709CE9417E5FB4B8
:1036E00039D69139F43953838B5F849C3B28F9BDDB
:1036F000FF97F81F0F9805DE8B112FEF1F6D0A5AE9
:10370000CF7E366DB709CB27663F464F2DEA5F9EC9
:10371000C7BA27757BF1E5EBF739073DEA92528A84
:10372000B15FFB6B085D8D1F000000006E83F9A286
:103730002915444ED15727FCC0DD34F5999562DB3D
:103740004190433CAB6351FEA6F810111111813F2B
:10375000D561C119A0012ABF7DFEB157E31DC73E47
:10376000EB9C2B8AE6E55ABE7CD5CF5A3AD9E53D8B
:1037700090370008000000200C000000C401000881
:103780009C3700080C0000204C080000E0010008F5
:0C3790000000000000000000000000002D
:040000050800018965
:00000001FF
